:100000000C942A000C9447000C9447000C94470071
:100010000C9447000C9447000C9447000C94550234
:100020000C9447000C9447000C9447000C94470034
:100030000C9447000C9447000C9447000C94470024
:100040000C9447000C9447000C9447000C94470014
:100050000C94470011241FBECFE5D8E0DEBFCDBF12
:1000600010E0A0E6B0E0EAE4FCE002C005900D92EA
:10007000A437B107D9F723E0A4E7B0E001C01D928F
:10008000A133B207E1F70E94BC020C9423060C9442
:100090000000CF93DF93EC010E94200420917400B4
:1000A00030917500C9018C0F9D1F883542E094077F
:1000B00058F42817390758F4E901CA58DF4F9093CC
:1000C00075008093740005C0C0E0D0E002C0C0E0BD
:1000D000D0E00E94EA04CE01DF91CF910895089507
:1000E000C29889EF90E00197F1F700C00000C29A32
:1000F0008BED95E00197F1F700C000000895CF93D4
:10010000C82FC098C19888B38F7088BB88B39C2FC4
:10011000907F892B88BB0E94700088B38F7088BB4A
:1001200088B3C295C07FC82BC8BB0E947000CF9116
:1001300008958FEF87BB84E088BB83E30E947F0034
:1001400082E30E947F0088E20E947F008CE00E9490
:100150007F000895CF93C82FC09AC19888B38F703D
:1001600088BB88B39C2F907F892B88BB0E9470002E
:1001700088B38F7088BB88B3C295C07FC82BC8BBBB
:100180000E947000CF910895813049F028F08230AC
:1001900049F0833051F00CC080E8860F0AC080EC33
:1001A000860F07C080E8860F04C080E8860F01C074
:1001B00080E80E947F00089581E00E947F000895FA
:1001C000CF93DF93EC018881882331F021960E9440
:1001D000AA0089918111FBCFDF91CF910895CF9330
:1001E000DF93EC01862F642F0E94C400CE010E9491
:1001F000E000DF91CF910895FC0103969283818303
:100200002FEF3FEF34832383968385839087878303
:1002100010820895FC01118610860895CF93DF9314
:10022000FC01DB0121813281E9018A819B811396E6
:100230009C938E9312978181928115969C938E93B5
:1002400014978A819B81EC017D836C83E9017B8318
:100250006A83728361831996FC93EE931897808169
:100260008F5F8083DF91CF910895FC01A281B381DC
:100270008481958115969C938E931497A481B58162
:100280008281938113969C938E931297A085B1855A
:1002900011968D919C911297E817F90731F484819A
:1002A000958112969C938E931197118610868C914E
:1002B00081508C93089531E1FC013083319722E223
:1002C00020833197A3E3A0833197608331977083B4
:1002D00031971082319760E86083319710823197AF
:1002E00062E06083319763E06083319764E060830C
:1002F000319765E06083319766E06083319767E00E
:100300006083319768E06083319769E0608331975B
:1003100060E1608331973083319732E130833197E8
:1003200033E13083319734E13083319735E13083E5
:10033000319736E13083319737E13083319738E1B7
:100340003083319739E13083319730E23083319710
:1003500031E2308331972083319723E22083319734
:10036000408331975083319726E22083319727E2EB
:100370002083319728E22083319729E22083319727
:1003800020E32083319721E32083869708951BBCC7
:100390008CE78ABD8BE08EBD89B7806189BFA09153
:1003A0002F03B0913003CD91CDBFDD91DEBFFF9122
:1003B000EF91DF91CF91BF91AF919F918F917F91FD
:1003C0006F915F914F913F912F911F910F91FF90EE
:1003D000EF90DF90CF90BF90AF909F908F907F90E5
:1003E0006F905F904F903F902F901F900F900FBE97
:1003F0000F90089581E008950F920FB6F8940F9230
:100400001F9211242F923F924F925F926F927F9290
:100410008F929F92AF92BF92CF92DF92EF92FF9214
:100420000F931F932F933F934F935F936F937F93FC
:100430008F939F93AF93BF93CF93DF93EF93FF93EC
:10044000A0912F03B09130030DB60D920EB60D9210
:100450000E94A105A0912F03B0913003CD91CDBF93
:10046000DD91DEBFFF91EF91DF91CF91BF91AF9111
:100470009F918F917F916F915F914F913F912F91BC
:100480001F910F91FF90EF90DF90CF90BF90AF90B2
:100490009F908F907F906F905F904F903F902F90A4
:1004A0001F900F900FBE0F9008951F920F920FB6DE
:1004B0000F9211242F933F934F935F936F937F93EA
:1004C0008F939F93AF93BF93EF93FF930E94260464
:1004D000FF91EF91BF91AF919F918F917F916F911C
:1004E0005F914F913F912F910F900FBE0F901F90F2
:1004F00018950CE010E0CCE0D0E0AE0160E070E0D8
:1005000082E690E00E94EF00A8014C1B5D0B61E0C9
:1005100070E088E690E00E94EF002FEF80E792E025
:10052000215080409040E1F700C000000E94DC00B4
:10053000219719F7C0E0D0E0AE0160E070E082E6FC
:1005400090E00E94EF00A8014C1B5D0B61E070E0A1
:1005500088E690E00E94EF002FEF80E792E02150C4
:1005600080409040E1F700C000000E94DC0021962E
:10057000CC30D10509F7BFCFAF92BF92CF92DF92B7
:10058000EF92FF920F93CF93DF9300D0CDB7DEB7FA
:10059000A12CB12CC12CD12CCE0101967C0101E003
:1005A00020E030E042E350E060E070E089E792E074
:1005B0000E94EC020E9499000E94F50380E090E006
:1005C0000F900F90DF91CF910F91FF90EF90DF9000
:1005D000CF90BF90AF9008954F925F926F927F92AD
:1005E0008F929F92AF92BF92CF92DF92EF92FF9243
:1005F0000F931F93CF93DF935C014B01EA01290115
:1006000081E290E00E9449003C01009709F4DBC0C0
:10061000C114D10409F0D2C0CE010E944900F301F7
:10062000908F878B009721F4C3010E946F00CBC08D
:10063000AE0165EA70E00E940D062197F3018789FB
:10064000908DC80FD91F48E050E0B401C30149960E
:100650000E941406F30110A2102F053008F014E0D8
:10066000F301168B6301F2E0CF0ED11CC6010E948C
:100670000A01C3010C960E940A01F301718660868B
:1006800085E090E0811B910995878487738A628A4F
:10069000A201B501CE010E945B01F3019183808329
:1006A000E114F10419F0F701718260820FB6F89439
:1006B0000F928091D8028F5F8093D80280912F0390
:1006C00090913003892BA1F57092300360922F0333
:1006D0008091D8028130D9F5C2E0D3E00F2EFFE23D
:1006E000EF2EF3E0FF2EF02DCE010E94FC002996A4
:1006F000CE15DF05C9F789EF92E00E94FC0080EF7C
:1007000092E00E94FC0083EE92E00E94FC008AEDE1
:1007100092E00E94FC0089EF92E09093EF028093B8
:10072000EE0280EF92E09093ED028093EC020FC016
:100730008091D30281110BC0E0912F03F09130031F
:100740008689081720F07092300360922F03F3011E
:1007500086899091D502981710F48093D5029091D4
:10076000CE029F5F9093CE029091D402981710F41E
:100770008093D40290E09C01220F331F220F331F7D
:10078000220F331F820F931FB6018E5F9C4F0E9472
:100790000E010F900FBE8091D302882359F0E09193
:1007A0002F03F09130038689801730F40E94FC01FA
:1007B00081E00AC081E008C081E006C0FC01D08E63
:1007C000C78AC60135CF8FEFDF91CF911F910F916F
:1007D000FF90EF90DF90CF90BF90AF909F908F9061
:1007E0007F906F905F904F900895AF92BF92CF929D
:1007F000DF92EF92FF920F93A12CB12CC12CD12C40
:10080000E12CF12C00E020E030E045E550E06EE620
:1008100070E08FE695E00E94EC02813049F4F89494
:100820008093D3021092D7021092D6020E94C70181
:100830000F91FF90EF90DF90CF90BF90AF90089511
:100840008091D2028F5F8093D20208950F931F93FD
:10085000CF93DF938091D2028111B2C08091D602F2
:100860009091D70201969093D7028093D6028091FF
:10087000D6029091D702892B99F58091EE02909142
:10088000EF022091EC023091ED023093EF022093C1
:10089000EE029093ED028093EC028091CF028F5F85
:1008A0008093CF02E091EE02F091EF0280818111FE
:1008B00007C08FEF9FEF909361008093600010C09E
:1008C000E091EE02F091EF020580F681E02D0680C6
:1008D000F781E02D82819381909361008093600085
:1008E0002091D6023091D7028091600090916100F2
:1008F0002817390708F469C0E091EE02F091EF0281
:100900008081882399F0E091EE02F091EF0205805A
:10091000F681E02DC681D7818A819B812091D60204
:100920003091D70228173907F8F419C08FEF9FEFDD
:10093000909361008093600048C0E091EE02F091D6
:10094000EF020580F681E02DC681D7818A819B81E7
:100950002091D6023091D7022817390728F49093B6
:1009600061008093600031C08E010E5F1F4FC8018F
:100970000E9435018C899D89892B21F0CE010C962E
:100980000E9435018E899091D402981710F48093BB
:10099000D40290E09C01220F331F220F331F220F3D
:1009A000331F820F931FB8018E5F9C4F0E940E0170
:1009B000E091EE02F091EF0280818111BECFB6CFBF
:1009C0008091D1028F5F8093D102DF91CF911F91EF
:1009D0000F910895CF92DF92EF92FF920F931F93A2
:1009E000CF93DF930FB6F8940F928091D20281508B
:1009F0008093D2028091D202811163C08091D8028B
:100A0000811132C061C0D7011596ED91FC91169706
:100A1000C681D781CE010C960E9435018E010E5FF2
:100A20001F4FC8010E9435018E899091D4029817FA
:100A300010F48093D40290E09C01220F331F220F08
:100A4000331F220F331F820F931FB8018E5F9C4FFD
:100A50000E940E01E0912F03F09130039E89868958
:100A6000981758F0DC2C09C0D12C0F2EF3EEEF2E86
:100A7000F2E0FF2EF02DCC24C394F7018081811188
:100A8000C2CF8091D102882379F08091D10288234E
:100A900059F00E9426048091D10281508093D102A6
:100AA0008091D1028111F5CFF1E0DF1621F0809124
:100AB000D002813041F41092D0020E94FC0181E00A
:100AC00003C080E001C080E00F900FBEDF91CF91A6
:100AD0001F910F91FF90EF90DF90CF9008950AED56
:100AE00012E08091D902882349F10E942004D801A4
:100AF000CC910E94EA04CC2309F10FB6F8940F922E
:100B0000D8011596ED91FC911697C681D781CE013B
:100B100002960E9435018091D80281508093D802BC
:100B20008091D90281508093D9020F900FBE8F8996
:100B3000988D0E946F00CE010E946F000E94FC0100
:100B4000D0CF8091D202811113C08091D40290E065
:100B5000FC01EE0FFF1FEE0FFF1FEE0FFF1F8E0FAA
:100B60009F1FFC01EE5FFC4F8081882329F01BC092
:100B700081E08093D00208958091D40281508093C7
:100B8000D4028091D40290E0FC01EE0FFF1FEE0F23
:100B9000FF1FEE0FFF1F8E0F9F1FFC01EE5FFC4F2C
:100BA0008081882349F38091D40290E09C01220F38
:100BB000331F220F331F220F331F280F391FD90174
:100BC000AE5FBC4F1196ED91FC9112970280F381BC
:100BD000E02D1296FC93EE9311972B5F3C4FE2179A
:100BE000F30729F422813381FD0132832183FC0143
:100BF000EE0FFF1FEE0FFF1FEE0FFF1F8E0F9F1F49
:100C0000FC01EE5FFC4F0180F281E02D868197812F
:100C10009093300380932F030895DC0101C06D93FE
:100C200041505040E0F70895FB01DC014150504035
:100C300048F001900D920020C9F701C01D9241506B
:0A0C40005040E0F70895F894FFCF4C
:100C4A00FFFF48656C6C6F00576F726C6400494413
:040C5A004C45000005
:00000001FF
